S00E00004441345F54312E7372656379
S11300000C9434000C946D000C9446000C9446003F
S11300100C9446000C9446000C9446000C94460044
S11300200C9446000C9446000C9446000C94460034
S11300300C9446000C9446000C9446000C94460024
S11300400C9446000C9446000C9446000C94460014
S11300500C9446000C9446000C9446000C94460004
S11300600C9446000C94460011241FBECFEFD8E038
S1130070DEBFCDBF21E0A0E0B1E001C01D92A230FF
S1130080B207E1F70E9448000C94A5000C9400000C
S11300908AE08093810083EA8093800084E08BB9B6
S11300A081E08DBB80E680937C0086EE80937A00AD
S11300B078948FEF84B9EAE7F0E0C9E7D0E0A8E8E4
S11300C0B0E0808184FFFDCF80818061808388815E
S11300D090E011969C938E93F4CF1F920F920FB6DB
S11300E00F9211242F938F939F93809100019091ED
S11300F00101892B61F4299A28982FEF89E698E168
S1130100215080409040E1F700C000000CC085B150
S11301108C7F85B92FEF89E698E12150804090408B
S1130120E1F700C00000809100019091010121E0FD
S1130130822790930101809300019F918F912F91C9
S11101400F900FBE0F901F901895F894FFCFEC
S9030000FC
