:100000000C9434000C9446000C9446000C9446006A
:100010000C9446000C9446000C9446000C94460048
:100020000C9446000C9446000C9446000C94460038
:100030000C9446000C9446000C9446000C94460028
:100040000C9446000C9446000C9446000C94460018
:100050000C9446000C9446000C9446000C94460008
:100060000C9446000C94460011241FBECFEFD8E03C
:10007000DEBFCDBF21E0A0E0B1E001C01D92A23003
:10008000B207E1F70E9448000C9488000C9400002D
:100090008FEF84B98AB983E08093810083E88093ED
:1000A000800080E680937C0086EE80937A00EAE709
:1000B000F0E0A9E7B0E0C8E8D0E02EE130E08081D0
:1000C00080648083808184FFFDCF8C9190E0909349
:1000D000010180930001009761F4198218824FEFAB
:1000E00089E698E1415080409040E1F700C000006F
:1000F000E6CF8F3F910519F7398328834FEF89E6C3
:1001000098E1415080409040E1F700C00000D7CF17
:04011000F894FFCF91
:00000001FF
