S00E00004441345F54322E7372656378
S11300000C9434000C9446000C9446000C94460066
S11300100C9446000C9446000C9446000C94460044
S11300200C9446000C9446000C9446000C94460034
S11300300C9446000C9446000C9446000C94460024
S11300400C9446000C9446000C9446000C94460014
S11300500C9446000C9448000C9446000C94460002
S11300600C9446000C94460011241FBECFEFD8E038
S1130070DEBFCDBF21E0A0E0B1E001C01D92A13000
S1130080B207E1F70E9471000C9487000C94000001
S11300901F920F920FB60F9211248F9380917900C3
S11300A0809300018F910F900FBE0F901F901895B1
S11300B010928500109284008091000190E090934A
S11300C0890080938800E1E8F0E080818D6080837E
S11300D0E0E8F0E0808180648083B199FECFB19A3A
S11300E008958FEF84B982E480937C0085E880933F
S11300F07A007894289A0E945800299A0E945800FD
S11301002A9A0E9458002B9A0E945800F3CFF89420
S1050110FFCF1B
S9030000FC
